{
  "contractName": "Governance",
  "abi": [
    {
      "inputs": [],
      "stateMutability": "nonpayable",
      "type": "constructor"
    },
    {
      "anonymous": false,
      "inputs": [
        {
          "indexed": false,
          "internalType": "uint256",
          "name": "proposalId",
          "type": "uint256"
        },
        {
          "indexed": false,
          "internalType": "string",
          "name": "description",
          "type": "string"
        }
      ],
      "name": "ProposalCreated",
      "type": "event"
    },
    {
      "anonymous": false,
      "inputs": [
        {
          "indexed": false,
          "internalType": "uint256",
          "name": "proposalId",
          "type": "uint256"
        },
        {
          "indexed": false,
          "internalType": "uint256",
          "name": "voteCount",
          "type": "uint256"
        }
      ],
      "name": "Voted",
      "type": "event"
    },
    {
      "inputs": [],
      "name": "chairperson",
      "outputs": [
        {
          "internalType": "address",
          "name": "",
          "type": "address"
        }
      ],
      "stateMutability": "view",
      "type": "function"
    },
    {
      "inputs": [],
      "name": "proposalCount",
      "outputs": [
        {
          "internalType": "uint256",
          "name": "",
          "type": "uint256"
        }
      ],
      "stateMutability": "view",
      "type": "function"
    },
    {
      "inputs": [
        {
          "internalType": "uint256",
          "name": "",
          "type": "uint256"
        }
      ],
      "name": "proposals",
      "outputs": [
        {
          "internalType": "uint256",
          "name": "id",
          "type": "uint256"
        },
        {
          "internalType": "string",
          "name": "description",
          "type": "string"
        },
        {
          "internalType": "uint256",
          "name": "voteCount",
          "type": "uint256"
        }
      ],
      "stateMutability": "view",
      "type": "function"
    },
    {
      "inputs": [
        {
          "internalType": "string",
          "name": "description",
          "type": "string"
        }
      ],
      "name": "createProposal",
      "outputs": [],
      "stateMutability": "nonpayable",
      "type": "function"
    },
    {
      "inputs": [
        {
          "internalType": "uint256",
          "name": "proposalId",
          "type": "uint256"
        }
      ],
      "name": "vote",
      "outputs": [],
      "stateMutability": "nonpayable",
      "type": "function"
    }
  ],
  "bytecode": "0x608060405234801561000f575f80fd5b503360025f6101000a81548173ffffffffffffffffffffffffffffffffffffffff021916908373ffffffffffffffffffffffffffffffffffffffff160217905550610b338061005d5f395ff3fe608060405234801561000f575f80fd5b5060043610610055575f3560e01c80630121b93f14610059578063013cf08b146100755780632e4176cf146100a757806349c2a1a6146100c5578063da35c664146100e1575b5f80fd5b610073600480360381019061006e91906103c6565b6100ff565b005b61008f600480360381019061008a91906103c6565b61016e565b60405161009e9392919061048a565b60405180910390f35b6100af610219565b6040516100bc9190610505565b60405180910390f35b6100df60048036038101906100da919061064a565b61023e565b005b6100e961037c565b6040516100f69190610691565b60405180910390f35b5f805f8381526020019081526020015f2090506001816002015f82825461012691906106d7565b925050819055507f84a5508ca0d85b42a876e75a9126f3ae7b43617ce60b170bf8805d34630bc65482826002015460405161016292919061070a565b60405180910390a15050565b5f602052805f5260405f205f91509050805f0154908060010180546101929061075e565b80601f01602080910402602001604051908101604052809291908181526020018280546101be9061075e565b80156102095780601f106101e057610100808354040283529160200191610209565b820191905f5260205f20905b8154815290600101906020018083116101ec57829003601f168201915b5050505050908060020154905083565b60025f9054906101000a900473ffffffffffffffffffffffffffffffffffffffff1681565b60025f9054906101000a900473ffffffffffffffffffffffffffffffffffffffff1673ffffffffffffffffffffffffffffffffffffffff163373ffffffffffffffffffffffffffffffffffffffff16146102cd576040517f08c379a00000000000000000000000000000000000000000000000000000000081526004016102c4906107fe565b60405180910390fd5b60015f8154809291906102df9061081c565b9190505550604051806060016040528060015481526020018281526020015f8152505f8060015481526020019081526020015f205f820151815f015560208201518160010190816103309190610a00565b50604082015181600201559050507f9c770c289ab5bf7e57cb1d23c8ceae993aea46eb64847072fd3d78ca60d3e43260015482604051610371929190610acf565b60405180910390a150565b60015481565b5f604051905090565b5f80fd5b5f80fd5b5f819050919050565b6103a581610393565b81146103af575f80fd5b50565b5f813590506103c08161039c565b92915050565b5f602082840312156103db576103da61038b565b5b5f6103e8848285016103b2565b91505092915050565b6103fa81610393565b82525050565b5f81519050919050565b5f82825260208201905092915050565b5f5b8381101561043757808201518184015260208101905061041c565b5f8484015250505050565b5f601f19601f8301169050919050565b5f61045c82610400565b610466818561040a565b935061047681856020860161041a565b61047f81610442565b840191505092915050565b5f60608201905061049d5f8301866103f1565b81810360208301526104af8185610452565b90506104be60408301846103f1565b949350505050565b5f73ffffffffffffffffffffffffffffffffffffffff82169050919050565b5f6104ef826104c6565b9050919050565b6104ff816104e5565b82525050565b5f6020820190506105185f8301846104f6565b92915050565b5f80fd5b5f80fd5b7f4e487b71000000000000000000000000000000000000000000000000000000005f52604160045260245ffd5b61055c82610442565b810181811067ffffffffffffffff8211171561057b5761057a610526565b5b80604052505050565b5f61058d610382565b90506105998282610553565b919050565b5f67ffffffffffffffff8211156105b8576105b7610526565b5b6105c182610442565b9050602081019050919050565b828183375f83830152505050565b5f6105ee6105e98461059e565b610584565b90508281526020810184848401111561060a57610609610522565b5b6106158482856105ce565b509392505050565b5f82601f8301126106315761063061051e565b5b81356106418482602086016105dc565b91505092915050565b5f6020828403121561065f5761065e61038b565b5b5f82013567ffffffffffffffff81111561067c5761067b61038f565b5b6106888482850161061d565b91505092915050565b5f6020820190506106a45f8301846103f1565b92915050565b7f4e487b71000000000000000000000000000000000000000000000000000000005f52601160045260245ffd5b5f6106e182610393565b91506106ec83610393565b9250828201905080821115610704576107036106aa565b5b92915050565b5f60408201905061071d5f8301856103f1565b61072a60208301846103f1565b9392505050565b7f4e487b71000000000000000000000000000000000000000000000000000000005f52602260045260245ffd5b5f600282049050600182168061077557607f821691505b60208210810361078857610787610731565b5b50919050565b7f4f6e6c7920746865206368616972706572736f6e2063616e20706572666f726d5f8201527f207468697320616374696f6e2e00000000000000000000000000000000000000602082015250565b5f6107e8602d8361040a565b91506107f38261078e565b604082019050919050565b5f6020820190508181035f830152610815816107dc565b9050919050565b5f61082682610393565b91507fffffffffffffffffffffffffffffffffffffffffffffffffffffffffffffffff8203610858576108576106aa565b5b600182019050919050565b5f819050815f5260205f209050919050565b5f6020601f8301049050919050565b5f82821b905092915050565b5f600883026108bf7fffffffffffffffffffffffffffffffffffffffffffffffffffffffffffffffff82610884565b6108c98683610884565b95508019841693508086168417925050509392505050565b5f819050919050565b5f6109046108ff6108fa84610393565b6108e1565b610393565b9050919050565b5f819050919050565b61091d836108ea565b6109316109298261090b565b848454610890565b825550505050565b5f90565b610945610939565b610950818484610914565b505050565b5b81811015610973576109685f8261093d565b600181019050610956565b5050565b601f8211156109b85761098981610863565b61099284610875565b810160208510156109a1578190505b6109b56109ad85610875565b830182610955565b50505b505050565b5f82821c905092915050565b5f6109d85f19846008026109bd565b1980831691505092915050565b5f6109f083836109c9565b9150826002028217905092915050565b610a0982610400565b67ffffffffffffffff811115610a2257610a21610526565b5b610a2c825461075e565b610a37828285610977565b5f60209050601f831160018114610a68575f8415610a56578287015190505b610a6085826109e5565b865550610ac7565b601f198416610a7686610863565b5f5b82811015610a9d57848901518255600182019150602085019450602081019050610a78565b86831015610aba5784890151610ab6601f8916826109c9565b8355505b6001600288020188555050505b505050505050565b5f604082019050610ae25f8301856103f1565b8181036020830152610af48184610452565b9050939250505056fea264697066735822122055cf6fcda3e4fa7a83523eb38a89852f4a5cb58a0b9ea477e4503f58977aafe264736f6c63430008150033",
  "immutableReferences": {},
  "source": "// SPDX-License-Identifier: MIT\r\npragma solidity ^0.8.4;\r\n\r\ncontract Governance {\r\n    struct Proposal {\r\n        uint id;\r\n        string description;\r\n        uint voteCount;\r\n    }\r\n\r\n    mapping(uint => Proposal) public proposals;\r\n    uint public proposalCount;\r\n    address public chairperson;\r\n\r\n    event ProposalCreated(uint proposalId, string description);\r\n    event Voted(uint proposalId, uint voteCount);\r\n\r\n    modifier onlyChairperson() {\r\n        require(msg.sender == chairperson, \"Only the chairperson can perform this action.\");\r\n        _;\r\n    }\r\n\r\n    constructor() {\r\n        chairperson = msg.sender;\r\n    }\r\n\r\n    function createProposal(string memory description) public onlyChairperson {\r\n        proposalCount++;\r\n        proposals[proposalCount] = Proposal(proposalCount, description, 0);\r\n        emit ProposalCreated(proposalCount, description);\r\n    }\r\n\r\n    function vote(uint proposalId) public {\r\n        Proposal storage proposal = proposals[proposalId];\r\n        proposal.voteCount += 1;\r\n        emit Voted(proposalId, proposal.voteCount);\r\n    }\r\n}\r\n",
  "sourcePath": "D:\\DAOPlatform\\contracts\\Governance.sol",
  "compiler": {
    "name": "solc",
    "version": "0.8.21+commit.d9974bed.Emscripten.clang"
  },
  "schemaVersion": "3.4.16",
  "updatedAt": "2024-05-29T18:13:09.641Z",
  "devdoc": {
    "kind": "dev",
    "methods": {},
    "version": 1
  },
  "userdoc": {
    "kind": "user",
    "methods": {},
    "version": 1
  }
}