{
  "contractName": "Governance",
  "abi": [
    {
      "inputs": [],
      "name": "proposalCount",
      "outputs": [
        {
          "internalType": "uint256",
          "name": "",
          "type": "uint256"
        }
      ],
      "stateMutability": "view",
      "type": "function"
    },
    {
      "inputs": [
        {
          "internalType": "uint256",
          "name": "",
          "type": "uint256"
        }
      ],
      "name": "proposals",
      "outputs": [
        {
          "internalType": "uint256",
          "name": "id",
          "type": "uint256"
        },
        {
          "internalType": "string",
          "name": "description",
          "type": "string"
        },
        {
          "internalType": "uint256",
          "name": "voteCount",
          "type": "uint256"
        }
      ],
      "stateMutability": "view",
      "type": "function"
    },
    {
      "inputs": [
        {
          "internalType": "string",
          "name": "description",
          "type": "string"
        }
      ],
      "name": "createProposal",
      "outputs": [],
      "stateMutability": "nonpayable",
      "type": "function"
    },
    {
      "inputs": [
        {
          "internalType": "uint256",
          "name": "proposalId",
          "type": "uint256"
        }
      ],
      "name": "vote",
      "outputs": [],
      "stateMutability": "nonpayable",
      "type": "function"
    }
  ],
  "bytecode": "0x608060405234801561000f575f80fd5b506108a38061001d5f395ff3fe608060405234801561000f575f80fd5b506004361061004a575f3560e01c80630121b93f1461004e578063013cf08b1461006a57806349c2a1a61461009c578063da35c664146100b8575b5f80fd5b61006860048036038101906100639190610271565b6100d6565b005b610084600480360381019061007f9190610271565b610108565b60405161009393929190610335565b60405180910390f35b6100b660048036038101906100b1919061049d565b6101b3565b005b6100c0610227565b6040516100cd91906104e4565b60405180910390f35b5f805f8381526020019081526020015f2090506001816002015f8282546100fd919061052a565b925050819055505050565b5f602052805f5260405f205f91509050805f01549080600101805461012c9061058a565b80601f01602080910402602001604051908101604052809291908181526020018280546101589061058a565b80156101a35780601f1061017a576101008083540402835291602001916101a3565b820191905f5260205f20905b81548152906001019060200180831161018657829003601f168201915b5050505050908060020154905083565b60015f8154809291906101c5906105ba565b9190505550604051806060016040528060015481526020018281526020015f8152505f8060015481526020019081526020015f205f820151815f01556020820151816001019081610216919061079e565b506040820151816002015590505050565b60015481565b5f604051905090565b5f80fd5b5f80fd5b5f819050919050565b6102508161023e565b811461025a575f80fd5b50565b5f8135905061026b81610247565b92915050565b5f6020828403121561028657610285610236565b5b5f6102938482850161025d565b91505092915050565b6102a58161023e565b82525050565b5f81519050919050565b5f82825260208201905092915050565b5f5b838110156102e25780820151818401526020810190506102c7565b5f8484015250505050565b5f601f19601f8301169050919050565b5f610307826102ab565b61031181856102b5565b93506103218185602086016102c5565b61032a816102ed565b840191505092915050565b5f6060820190506103485f83018661029c565b818103602083015261035a81856102fd565b9050610369604083018461029c565b949350505050565b5f80fd5b5f80fd5b7f4e487b71000000000000000000000000000000000000000000000000000000005f52604160045260245ffd5b6103af826102ed565b810181811067ffffffffffffffff821117156103ce576103cd610379565b5b80604052505050565b5f6103e061022d565b90506103ec82826103a6565b919050565b5f67ffffffffffffffff82111561040b5761040a610379565b5b610414826102ed565b9050602081019050919050565b828183375f83830152505050565b5f61044161043c846103f1565b6103d7565b90508281526020810184848401111561045d5761045c610375565b5b610468848285610421565b509392505050565b5f82601f83011261048457610483610371565b5b813561049484826020860161042f565b91505092915050565b5f602082840312156104b2576104b1610236565b5b5f82013567ffffffffffffffff8111156104cf576104ce61023a565b5b6104db84828501610470565b91505092915050565b5f6020820190506104f75f83018461029c565b92915050565b7f4e487b71000000000000000000000000000000000000000000000000000000005f52601160045260245ffd5b5f6105348261023e565b915061053f8361023e565b9250828201905080821115610557576105566104fd565b5b92915050565b7f4e487b71000000000000000000000000000000000000000000000000000000005f52602260045260245ffd5b5f60028204905060018216806105a157607f821691505b6020821081036105b4576105b361055d565b5b50919050565b5f6105c48261023e565b91507fffffffffffffffffffffffffffffffffffffffffffffffffffffffffffffffff82036105f6576105f56104fd565b5b600182019050919050565b5f819050815f5260205f209050919050565b5f6020601f8301049050919050565b5f82821b905092915050565b5f6008830261065d7fffffffffffffffffffffffffffffffffffffffffffffffffffffffffffffffff82610622565b6106678683610622565b95508019841693508086168417925050509392505050565b5f819050919050565b5f6106a261069d6106988461023e565b61067f565b61023e565b9050919050565b5f819050919050565b6106bb83610688565b6106cf6106c7826106a9565b84845461062e565b825550505050565b5f90565b6106e36106d7565b6106ee8184846106b2565b505050565b5b81811015610711576107065f826106db565b6001810190506106f4565b5050565b601f8211156107565761072781610601565b61073084610613565b8101602085101561073f578190505b61075361074b85610613565b8301826106f3565b50505b505050565b5f82821c905092915050565b5f6107765f198460080261075b565b1980831691505092915050565b5f61078e8383610767565b9150826002028217905092915050565b6107a7826102ab565b67ffffffffffffffff8111156107c0576107bf610379565b5b6107ca825461058a565b6107d5828285610715565b5f60209050601f831160018114610806575f84156107f4578287015190505b6107fe8582610783565b865550610865565b601f19841661081486610601565b5f5b8281101561083b57848901518255600182019150602085019450602081019050610816565b868310156108585784890151610854601f891682610767565b8355505b6001600288020188555050505b50505050505056fea26469706673582212200fe585a6ce6cac9762b63e8388cc6e72cd879c2b8a8a9bbc9673d15ff35f68bb64736f6c63430008150033",
  "immutableReferences": {},
  "source": "pragma solidity ^0.8.4;\r\n\r\ncontract Governance {\r\n    struct Proposal {\r\n        uint id;\r\n        string description;\r\n        uint voteCount;\r\n    }\r\n\r\n    mapping(uint => Proposal) public proposals;\r\n    uint public proposalCount;\r\n\r\n    function createProposal(string memory description) public {\r\n        proposalCount++;\r\n        proposals[proposalCount] = Proposal(proposalCount, description, 0);\r\n    }\r\n\r\n    function vote(uint proposalId) public {\r\n        Proposal storage proposal = proposals[proposalId];\r\n        proposal.voteCount += 1; // Simplified voting logic\r\n    }\r\n}\r\n",
  "sourcePath": "D:\\DAOPlatform\\contracts\\Governance.sol",
  "compiler": {
    "name": "solc",
    "version": "0.8.21+commit.d9974bed.Emscripten.clang"
  },
  "schemaVersion": "3.4.16",
  "updatedAt": "2024-05-29T13:24:44.486Z",
  "devdoc": {
    "kind": "dev",
    "methods": {},
    "version": 1
  },
  "userdoc": {
    "kind": "user",
    "methods": {},
    "version": 1
  }
}