{
  "contractName": "ProposalManagement",
  "abi": [
    {
      "inputs": [
        {
          "internalType": "uint256",
          "name": "",
          "type": "uint256"
        }
      ],
      "name": "proposals",
      "outputs": [
        {
          "internalType": "uint256",
          "name": "id",
          "type": "uint256"
        },
        {
          "internalType": "string",
          "name": "description",
          "type": "string"
        },
        {
          "internalType": "bool",
          "name": "active",
          "type": "bool"
        }
      ],
      "stateMutability": "view",
      "type": "function"
    },
    {
      "inputs": [
        {
          "internalType": "string",
          "name": "description",
          "type": "string"
        }
      ],
      "name": "createProposal",
      "outputs": [],
      "stateMutability": "nonpayable",
      "type": "function"
    },
    {
      "inputs": [
        {
          "internalType": "uint256",
          "name": "proposalId",
          "type": "uint256"
        }
      ],
      "name": "deactivateProposal",
      "outputs": [],
      "stateMutability": "nonpayable",
      "type": "function"
    }
  ],
  "bytecode": "0x608060405234801561000f575f80fd5b506108378061001d5f395ff3fe608060405234801561000f575f80fd5b506004361061003f575f3560e01c8063013cf08b1461004357806349c2a1a6146100755780636bff47e614610091575b5f80fd5b61005d6004803603810190610058919061027e565b6100ad565b60405161006c9392919061035c565b60405180910390f35b61008f600480360381019061008a91906104c4565b610173565b005b6100ab60048036038101906100a6919061027e565b6101fe565b005b5f81815481106100bb575f80fd5b905f5260205f2090600302015f91509050805f0154908060010180546100e090610538565b80601f016020809104026020016040519081016040528092919081815260200182805461010c90610538565b80156101575780601f1061012e57610100808354040283529160200191610157565b820191905f5260205f20905b81548152906001019060200180831161013a57829003601f168201915b505050505090806002015f9054906101000a900460ff16905083565b5f60405180606001604052805f80549050815260200183815260200160011515815250908060018154018082558091505060019003905f5260205f2090600302015f909190919091505f820151815f015560208201518160010190816101d99190610705565b506040820151816002015f6101000a81548160ff021916908315150217905550505050565b5f808281548110610212576102116107d4565b5b905f5260205f2090600302016002015f6101000a81548160ff02191690831515021790555050565b5f604051905090565b5f80fd5b5f80fd5b5f819050919050565b61025d8161024b565b8114610267575f80fd5b50565b5f8135905061027881610254565b92915050565b5f6020828403121561029357610292610243565b5b5f6102a08482850161026a565b91505092915050565b6102b28161024b565b82525050565b5f81519050919050565b5f82825260208201905092915050565b5f5b838110156102ef5780820151818401526020810190506102d4565b5f8484015250505050565b5f601f19601f8301169050919050565b5f610314826102b8565b61031e81856102c2565b935061032e8185602086016102d2565b610337816102fa565b840191505092915050565b5f8115159050919050565b61035681610342565b82525050565b5f60608201905061036f5f8301866102a9565b8181036020830152610381818561030a565b9050610390604083018461034d565b949350505050565b5f80fd5b5f80fd5b7f4e487b71000000000000000000000000000000000000000000000000000000005f52604160045260245ffd5b6103d6826102fa565b810181811067ffffffffffffffff821117156103f5576103f46103a0565b5b80604052505050565b5f61040761023a565b905061041382826103cd565b919050565b5f67ffffffffffffffff821115610432576104316103a0565b5b61043b826102fa565b9050602081019050919050565b828183375f83830152505050565b5f61046861046384610418565b6103fe565b9050828152602081018484840111156104845761048361039c565b5b61048f848285610448565b509392505050565b5f82601f8301126104ab576104aa610398565b5b81356104bb848260208601610456565b91505092915050565b5f602082840312156104d9576104d8610243565b5b5f82013567ffffffffffffffff8111156104f6576104f5610247565b5b61050284828501610497565b91505092915050565b7f4e487b71000000000000000000000000000000000000000000000000000000005f52602260045260245ffd5b5f600282049050600182168061054f57607f821691505b6020821081036105625761056161050b565b5b50919050565b5f819050815f5260205f209050919050565b5f6020601f8301049050919050565b5f82821b905092915050565b5f600883026105c47fffffffffffffffffffffffffffffffffffffffffffffffffffffffffffffffff82610589565b6105ce8683610589565b95508019841693508086168417925050509392505050565b5f819050919050565b5f6106096106046105ff8461024b565b6105e6565b61024b565b9050919050565b5f819050919050565b610622836105ef565b61063661062e82610610565b848454610595565b825550505050565b5f90565b61064a61063e565b610655818484610619565b505050565b5b818110156106785761066d5f82610642565b60018101905061065b565b5050565b601f8211156106bd5761068e81610568565b6106978461057a565b810160208510156106a6578190505b6106ba6106b28561057a565b83018261065a565b50505b505050565b5f82821c905092915050565b5f6106dd5f19846008026106c2565b1980831691505092915050565b5f6106f583836106ce565b9150826002028217905092915050565b61070e826102b8565b67ffffffffffffffff811115610727576107266103a0565b5b6107318254610538565b61073c82828561067c565b5f60209050601f83116001811461076d575f841561075b578287015190505b61076585826106ea565b8655506107cc565b601f19841661077b86610568565b5f5b828110156107a25784890151825560018201915060208501945060208101905061077d565b868310156107bf57848901516107bb601f8916826106ce565b8355505b6001600288020188555050505b505050505050565b7f4e487b71000000000000000000000000000000000000000000000000000000005f52603260045260245ffdfea26469706673582212205b36bfa23b79cf5fccb144f0fa3c04b3f3bac906c0190609fa2afb913e43d94364736f6c63430008150033",
  "immutableReferences": {},
  "source": "pragma solidity ^0.8.4;\r\n\r\ncontract ProposalManagement {\r\n    struct Proposal {\r\n        uint id;\r\n        string description;\r\n        bool active;\r\n    }\r\n\r\n    Proposal[] public proposals;\r\n\r\n    function createProposal(string memory description) public {\r\n        proposals.push(Proposal(proposals.length, description, true));\r\n    }\r\n\r\n    function deactivateProposal(uint proposalId) public {\r\n        proposals[proposalId].active = false;\r\n    }\r\n}\r\n",
  "sourcePath": "D:\\DAOPlatform\\contracts\\ProposalManagement.sol",
  "compiler": {
    "name": "solc",
    "version": "0.8.21+commit.d9974bed.Emscripten.clang"
  },
  "schemaVersion": "3.4.16",
  "updatedAt": "2024-05-29T13:24:44.501Z",
  "devdoc": {
    "kind": "dev",
    "methods": {},
    "version": 1
  },
  "userdoc": {
    "kind": "user",
    "methods": {},
    "version": 1
  }
}