{
  "contractName": "Treasury",
  "abi": [
    {
      "inputs": [],
      "stateMutability": "nonpayable",
      "type": "constructor"
    },
    {
      "anonymous": false,
      "inputs": [
        {
          "indexed": false,
          "internalType": "address",
          "name": "depositor",
          "type": "address"
        },
        {
          "indexed": false,
          "internalType": "uint256",
          "name": "amount",
          "type": "uint256"
        }
      ],
      "name": "DepositReceived",
      "type": "event"
    },
    {
      "anonymous": false,
      "inputs": [
        {
          "indexed": false,
          "internalType": "uint256",
          "name": "amount",
          "type": "uint256"
        },
        {
          "indexed": false,
          "internalType": "address",
          "name": "recipient",
          "type": "address"
        }
      ],
      "name": "ExpenseApproved",
      "type": "event"
    },
    {
      "inputs": [],
      "name": "admin",
      "outputs": [
        {
          "internalType": "address",
          "name": "",
          "type": "address"
        }
      ],
      "stateMutability": "view",
      "type": "function"
    },
    {
      "inputs": [
        {
          "internalType": "address",
          "name": "",
          "type": "address"
        }
      ],
      "name": "balances",
      "outputs": [
        {
          "internalType": "uint256",
          "name": "",
          "type": "uint256"
        }
      ],
      "stateMutability": "view",
      "type": "function"
    },
    {
      "inputs": [],
      "name": "deposit",
      "outputs": [],
      "stateMutability": "payable",
      "type": "function"
    },
    {
      "inputs": [
        {
          "internalType": "uint256",
          "name": "amount",
          "type": "uint256"
        },
        {
          "internalType": "address",
          "name": "recipient",
          "type": "address"
        }
      ],
      "name": "approveExpense",
      "outputs": [],
      "stateMutability": "nonpayable",
      "type": "function"
    }
  ],
  "bytecode": "0x608060405234801561000f575f80fd5b50335f806101000a81548173ffffffffffffffffffffffffffffffffffffffff021916908373ffffffffffffffffffffffffffffffffffffffff1602179055506106cf8061005c5f395ff3fe60806040526004361061003e575f3560e01c806327e235e3146100425780635b81c4431461007e578063d0e30db0146100a6578063f851a440146100b0575b5f80fd5b34801561004d575f80fd5b5061006860048036038101906100639190610391565b6100da565b60405161007591906103d4565b60405180910390f35b348015610089575f80fd5b506100a4600480360381019061009f9190610417565b6100ef565b005b6100ae610240565b005b3480156100bb575f80fd5b506100c4610310565b6040516100d19190610464565b60405180910390f35b6001602052805f5260405f205f915090505481565b5f8054906101000a900473ffffffffffffffffffffffffffffffffffffffff1673ffffffffffffffffffffffffffffffffffffffff163373ffffffffffffffffffffffffffffffffffffffff161461017c576040517f08c379a0000000000000000000000000000000000000000000000000000000008152600401610173906104fd565b60405180910390fd5b814710156101bf576040517f08c379a00000000000000000000000000000000000000000000000000000000081526004016101b690610565565b60405180910390fd5b8073ffffffffffffffffffffffffffffffffffffffff166108fc8390811502906040515f60405180830381858888f19350505050158015610202573d5f803e3d5ffd5b507fe162d266e792d6e0f285a2273576dbe93b2fbcd9499160acece9637353977cc38282604051610234929190610583565b60405180910390a15050565b5f3411610282576040517f08c379a0000000000000000000000000000000000000000000000000000000008152600401610279906105f4565b60405180910390fd5b3460015f3373ffffffffffffffffffffffffffffffffffffffff1673ffffffffffffffffffffffffffffffffffffffff1681526020019081526020015f205f8282546102ce919061063f565b925050819055507f9936746a4565f9766fa768f88f56a7487c78780ac179562773d1c75c5269537e3334604051610306929190610672565b60405180910390a1565b5f8054906101000a900473ffffffffffffffffffffffffffffffffffffffff1681565b5f80fd5b5f73ffffffffffffffffffffffffffffffffffffffff82169050919050565b5f61036082610337565b9050919050565b61037081610356565b811461037a575f80fd5b50565b5f8135905061038b81610367565b92915050565b5f602082840312156103a6576103a5610333565b5b5f6103b38482850161037d565b91505092915050565b5f819050919050565b6103ce816103bc565b82525050565b5f6020820190506103e75f8301846103c5565b92915050565b6103f6816103bc565b8114610400575f80fd5b50565b5f81359050610411816103ed565b92915050565b5f806040838503121561042d5761042c610333565b5b5f61043a85828601610403565b925050602061044b8582860161037d565b9150509250929050565b61045e81610356565b82525050565b5f6020820190506104775f830184610455565b92915050565b5f82825260208201905092915050565b7f4f6e6c79207468652061646d696e2063616e20706572666f726d2074686973205f8201527f616374696f6e2e00000000000000000000000000000000000000000000000000602082015250565b5f6104e760278361047d565b91506104f28261048d565b604082019050919050565b5f6020820190508181035f830152610514816104db565b9050919050565b7f496e73756666696369656e742066756e647300000000000000000000000000005f82015250565b5f61054f60128361047d565b915061055a8261051b565b602082019050919050565b5f6020820190508181035f83015261057c81610543565b9050919050565b5f6040820190506105965f8301856103c5565b6105a36020830184610455565b9392505050565b7f4465706f736974206d7573742062652067726561746572207468616e203000005f82015250565b5f6105de601e8361047d565b91506105e9826105aa565b602082019050919050565b5f6020820190508181035f83015261060b816105d2565b9050919050565b7f4e487b71000000000000000000000000000000000000000000000000000000005f52601160045260245ffd5b5f610649826103bc565b9150610654836103bc565b925082820190508082111561066c5761066b610612565b5b92915050565b5f6040820190506106855f830185610455565b61069260208301846103c5565b939250505056fea2646970667358221220a4a883f4124815ae2e1f9149f7245886448aeb2af27b9319e9616ebb157fca8d64736f6c63430008150033",
  "immutableReferences": {},
  "source": "// SPDX-License-Identifier: MIT\r\npragma solidity ^0.8.4;\r\n\r\ncontract Treasury {\r\n    address public admin;\r\n    mapping(address => uint) public balances;\r\n\r\n    event DepositReceived(address depositor, uint amount);\r\n    event ExpenseApproved(uint amount, address recipient);\r\n\r\n    constructor() {\r\n        admin = msg.sender;\r\n    }\r\n\r\n    modifier onlyAdmin() {\r\n        require(msg.sender == admin, \"Only the admin can perform this action.\");\r\n        _;\r\n    }\r\n\r\n    function deposit() public payable {\r\n        require(msg.value > 0, \"Deposit must be greater than 0\");\r\n        balances[msg.sender] += msg.value;\r\n        emit DepositReceived(msg.sender, msg.value);\r\n    }\r\n\r\n    function approveExpense(uint amount, address recipient) public onlyAdmin {\r\n        require(address(this).balance >= amount, \"Insufficient funds\");\r\n        payable(recipient).transfer(amount);\r\n        emit ExpenseApproved(amount, recipient);\r\n    }\r\n}\r\n",
  "sourcePath": "D:\\DAOPlatform\\contracts\\Treasury.sol",
  "compiler": {
    "name": "solc",
    "version": "0.8.21+commit.d9974bed.Emscripten.clang"
  },
  "schemaVersion": "3.4.16",
  "updatedAt": "2024-05-29T18:13:09.653Z",
  "devdoc": {
    "kind": "dev",
    "methods": {},
    "version": 1
  },
  "userdoc": {
    "kind": "user",
    "methods": {},
    "version": 1
  }
}