{
  "contractName": "Treasury",
  "abi": [
    {
      "inputs": [],
      "stateMutability": "nonpayable",
      "type": "constructor"
    },
    {
      "inputs": [],
      "name": "admin",
      "outputs": [
        {
          "internalType": "address",
          "name": "",
          "type": "address"
        }
      ],
      "stateMutability": "view",
      "type": "function"
    },
    {
      "inputs": [
        {
          "internalType": "address",
          "name": "",
          "type": "address"
        }
      ],
      "name": "balances",
      "outputs": [
        {
          "internalType": "uint256",
          "name": "",
          "type": "uint256"
        }
      ],
      "stateMutability": "view",
      "type": "function"
    },
    {
      "inputs": [],
      "name": "deposit",
      "outputs": [],
      "stateMutability": "payable",
      "type": "function"
    },
    {
      "inputs": [
        {
          "internalType": "uint256",
          "name": "amount",
          "type": "uint256"
        },
        {
          "internalType": "address",
          "name": "recipient",
          "type": "address"
        }
      ],
      "name": "approveExpense",
      "outputs": [],
      "stateMutability": "nonpayable",
      "type": "function"
    }
  ],
  "bytecode": "0x608060405234801561000f575f80fd5b50335f806101000a81548173ffffffffffffffffffffffffffffffffffffffff021916908373ffffffffffffffffffffffffffffffffffffffff1602179055506105e98061005c5f395ff3fe60806040526004361061003e575f3560e01c806327e235e3146100425780635b81c4431461007e578063d0e30db0146100a6578063f851a440146100b0575b5f80fd5b34801561004d575f80fd5b506100686004803603810190610063919061031f565b6100da565b6040516100759190610362565b60405180910390f35b348015610089575f80fd5b506100a4600480360381019061009f91906103a5565b6100ef565b005b6100ae610207565b005b3480156100bb575f80fd5b506100c461029e565b6040516100d191906103f2565b60405180910390f35b6001602052805f5260405f205f915090505481565b5f8054906101000a900473ffffffffffffffffffffffffffffffffffffffff1673ffffffffffffffffffffffffffffffffffffffff163373ffffffffffffffffffffffffffffffffffffffff161461017c576040517f08c379a000000000000000000000000000000000000000000000000000000000815260040161017390610465565b60405180910390fd5b814710156101bf576040517f08c379a00000000000000000000000000000000000000000000000000000000081526004016101b6906104cd565b60405180910390fd5b8073ffffffffffffffffffffffffffffffffffffffff166108fc8390811502906040515f60405180830381858888f19350505050158015610202573d5f803e3d5ffd5b505050565b5f3411610249576040517f08c379a000000000000000000000000000000000000000000000000000000000815260040161024090610535565b60405180910390fd5b3460015f3373ffffffffffffffffffffffffffffffffffffffff1673ffffffffffffffffffffffffffffffffffffffff1681526020019081526020015f205f8282546102959190610580565b92505081905550565b5f8054906101000a900473ffffffffffffffffffffffffffffffffffffffff1681565b5f80fd5b5f73ffffffffffffffffffffffffffffffffffffffff82169050919050565b5f6102ee826102c5565b9050919050565b6102fe816102e4565b8114610308575f80fd5b50565b5f81359050610319816102f5565b92915050565b5f60208284031215610334576103336102c1565b5b5f6103418482850161030b565b91505092915050565b5f819050919050565b61035c8161034a565b82525050565b5f6020820190506103755f830184610353565b92915050565b6103848161034a565b811461038e575f80fd5b50565b5f8135905061039f8161037b565b92915050565b5f80604083850312156103bb576103ba6102c1565b5b5f6103c885828601610391565b92505060206103d98582860161030b565b9150509250929050565b6103ec816102e4565b82525050565b5f6020820190506104055f8301846103e3565b92915050565b5f82825260208201905092915050565b7f4f6e6c792061646d696e2063616e20617070726f766520657870656e736573005f82015250565b5f61044f601f8361040b565b915061045a8261041b565b602082019050919050565b5f6020820190508181035f83015261047c81610443565b9050919050565b7f496e73756666696369656e742066756e647300000000000000000000000000005f82015250565b5f6104b760128361040b565b91506104c282610483565b602082019050919050565b5f6020820190508181035f8301526104e4816104ab565b9050919050565b7f4465706f736974206d7573742062652067726561746572207468616e203000005f82015250565b5f61051f601e8361040b565b915061052a826104eb565b602082019050919050565b5f6020820190508181035f83015261054c81610513565b9050919050565b7f4e487b71000000000000000000000000000000000000000000000000000000005f52601160045260245ffd5b5f61058a8261034a565b91506105958361034a565b92508282019050808211156105ad576105ac610553565b5b9291505056fea264697066735822122014bfacff9b62e6207dcf58d898a87e8c423bfa98ecfa9993f545dcd5ae56d9ff64736f6c63430008150033",
  "immutableReferences": {},
  "source": "pragma solidity ^0.8.4;\r\n\r\ncontract Treasury {\r\n    address public admin;\r\n    mapping(address => uint) public balances;\r\n\r\n    constructor() {\r\n        admin = msg.sender;\r\n    }\r\n\r\n    function deposit() public payable {\r\n        require(msg.value > 0, \"Deposit must be greater than 0\");\r\n        balances[msg.sender] += msg.value;\r\n    }\r\n\r\n    function approveExpense(uint amount, address recipient) public {\r\n        require(msg.sender == admin, \"Only admin can approve expenses\");\r\n        require(address(this).balance >= amount, \"Insufficient funds\");\r\n        payable(recipient).transfer(amount);\r\n    }\r\n}\r\n",
  "sourcePath": "D:\\DAOPlatform\\contracts\\Treasury.sol",
  "compiler": {
    "name": "solc",
    "version": "0.8.21+commit.d9974bed.Emscripten.clang"
  },
  "schemaVersion": "3.4.16",
  "updatedAt": "2024-05-29T13:24:44.503Z",
  "devdoc": {
    "kind": "dev",
    "methods": {},
    "version": 1
  },
  "userdoc": {
    "kind": "user",
    "methods": {},
    "version": 1
  }
}